:020000040000FA
:1000000000800220D5040000DD040000DF040000B1
:10001000E1040000E3040000E5040000000000002B
:10002000FFFFFFFF0000000000000000E7040000E9
:10003000E904000000000000EB040000D17F000094
:10004000EF040000F3040000F7040000FB040000CC
:10005000FF04000003050000070500000B05000079
:100060000F05000013050000170500001B05000028
:100070008164000023050000270500002B05000017
:100080002F05000033050000370500003B05000088
:100090003F05000043050000470500004B05000038
:1000A0004F050000453B0000A15200005B05000029
:1000B0005F05000063050000670500006B05000098
:1000C0006F05000073050000770500007B05000048
:1000D0007F05000083050000870500008B050000F8
:1000E0008F05000093050000970500009B050000A8
:1000F0009F050000A3050000A7050000AB05000058
:10010000AF050000B3050000B7050000BB05000007
:10011000BF050000F95C0000C7050000CB0500002A
:10012000CF050000000000000000000000000000FB
:1001300000000000000000000000000000000000BF
:1001400000000000000000000000000000000000AF
:10015000000000000000000000000000000000009F
:10016000000000000000000000000000000000008F
:100400004B1C012B98BF70472DE9F003911C9B08F2
:10041000B1F80480B1F802900A8831F802CC804427
:10042000814402448444D9F80070D8F8006015680B
:10043000DCF80040C9F80060C8F80070CCF8005043
:100440001460D9F80470D8F804605568DCF80440EA
:10045000C9F80460C8F80470CCF80450546008313E
:100460005B1ED5D1BDE8F00370474B1C012B98BF34
:1004700070472DE9F003911C9B08B1F80480B1F896
:1004800002900A8831F802CC00EB580800EB5909B9
:1004900000EB520200EB5C0CD9F80070D8F8006059
:1004A0001568DCF80040C9F80060C8F80070CCF8A6
:1004B0000050146008315B1EDFD1BDE8F0037047C7
:1004C000DFF80CD000F03AFC00480047E5A500003A
:1004D000008002203F4880473F480047FEE7FEE794
:1004E000FEE7FEE7FEE7FEE7FEE7FEE7FEE73B4846
:1004F00000473B4800473B4800473B4800473B48D4
:1005000000473B4800473B4800473B4800473B48C3
:1005100000473B4800473B4800473B4800473B48B3
:1005200000473B4800473B4800473B4800473B48A3
:1005300000473B4800473B4800473B4800473B4893
:1005400000473B4800473B4800473B4800473B4883
:1005500000473B4800473B4800473B4800473B4873
:1005600000473B4800473B4800473B4800473B4863
:1005700000473B4800473B4800473B4800473B4853
:1005800000473B4800473B4800473B4800473B4843
:1005900000473B4800473B4800473B4800473B4833
:1005A00000473B4800473B4800473B4800473B4823
:1005B00000473B4800473B4800473B4800473B4813
:1005C00000473B4800473B4800473B4800473B4803
:1005D0000047FEE7DD7F0000C1040000D3050000F6
:1005E000853A000051520000795200002961000054
:1005F0005561000081610000AD61000015840000BC
:10060000D3050000A5240000AF240000D30500009E
:10061000C3240000894C0000ED4C0000514D000047
:10062000B54D0000194E00007D4E0000D3050000BE
:10063000D3050000D3050000D3050000D30500005A
:10064000313B0000D3050000D3050000D3050000B6
:10065000D3050000D3050000D3050000D9610000D8
:1006600005620000316200005D620000B9240000F4
:10067000CD240000D3050000D3050000E14E0000AA
:10068000454F0000D16A0000E91600004117000044
:1006900099170000F1170000D3050000D3050000F2
:1006A000DD430000D3050000D3050000D3050000A2
:1006B000D3050000D3050000D3050000D3050000DA
:1006C0002DE9F05F0546002092469B468846064687
:1006D000814640241BE0284641464746224600F01A
:1006E000F0F953465A46C01A914110D311461846A4
:1006F000224600F0D7F92D1A67EB01084F46224633
:100700000120002100F0CEF917EB00094E41201E18
:10071000A4F10104DFDC484631462A464346BDE8E1
:10072000F09F40EA01039B0703D009E008C9121FAC
:1007300008C0042AFAD203E011F8013B00F8013B9B
:10074000521EF9D27047D2B201E000F8012B491EC7
:10075000FBD270470022F6E710B513460A4604465E
:100760001946FFF7F0FF204610BD421C10F8011B90
:100770000029FBD1801A70472DE9FE4F804681EA9F
:100780000300C00F0C46009021F0004123F000450B
:10079000B8EB0200A94105D24046214690461C46CE
:1007A0000B46024623F00040104347D0270DC7F305
:1007B0000A00C3F30A510290401A019040286BDAF4
:1007C000C3F3130040F4801B0098924620B100232D
:1007D000D2EB030A63EB0B0B01985946C0F14002C0
:1007E000504600F05FF906460D4650465946019ABC
:1007F00000F077F910EB08006141002487EA1152FC
:1008000084EAE7731A4340D0009A62B3019A012A3E
:100810004FEA075215DC001B61EB02014FF000426A
:1008200002EA0752CDE90042001C41F58011324630
:100830002B4600F0AEF903B0BDE8F08F40462146EC
:10084000F9E7001B61EB0201001C41F58013001861
:100850005B412018A2F5001747EB030140EAD57071
:10086000B6196D4111E06D084FEA360645EAC075CC
:100870004FEA0752001B61EB0201001C41F5801199
:1008800049084FEA30000019514132462B4603B067
:10089000BDE8F04F00F06EB900980122400000233F
:1008A000D0EB020263EBE073009821464FEAE0745C
:1008B000B8EB000061EB0401E9E783F000435BE77C
:1008C00081F0004158E72DE9FE4F81EA030404F06E
:1008D000004421F0004100944FF0000B23F000434E
:1008E00050EA01045ED052EA03045BD0C3F30A5419
:1008F000C1F30A552C44A4F2F3340194A0FB025432
:10090000C1F3130141F48011C3F3130343F48013C3
:1009100001FB024400FB034E840A970A44EA815417
:1009200047EA8357A4FB076802958D0A05FB0785F4
:100930004FEA932C04FB0C542705029D4FEA0658FE
:1009400047EA1637B5EB08056EEB070C870E920EDB
:1009500047EA811742EA8312A7FB0201B6EB0B01BB
:1009600064EB00042B0D43EA0C335E1844EB1C507F
:10097000DA465146E7FB0201C5F313044FEA0B3395
:1009800043EA14534FEA0432019C43EA0603A4F1FC
:100990000C040294009CCDE900B400F0FAF803B016
:1009A000BDE8F08F00200146F9E770B5C1F30A52A7
:1009B00001F000450024C1F3130140F2FF3341F47C
:1009C00080119A4201DA002070BD40F233439A420E
:1009D000A2F2334203DC524200F073F800E0904090
:1009E0002C43F1D0404270BD00F0004230F0004096
:1009F0000AD0C10D01F56071C0F3160042EA015141
:100A0000C2084007114370470020014670470000AC
:100A100030B5041E71F1000404DB4FF00044404285
:100A200064EB0101141E73F1000405DB1C464FF05A
:100A30000043524263EB0403994208BF904230BD29
:100A400001F0004330B421F0004150EA010206D029
:100A50000A0DA2F56072C1F31301002A02DC30BC5A
:100A600000207047440F44EAC104C100E01830BCC4
:100A700000EBC25000F047B830B50B4601460020ED
:100A80002022012409E021FA02F59D4205D303FA50
:100A900002F5491B04FA02F52844151EA2F10102D1
:100AA000F1DC30BD202A04DB203A00FA02F10020FC
:100AB00070479140C2F1200320FA03F3194390409C
:100AC0007047202A04DB203A21FA02F00021704707
:100AD00021FA02F3D040C2F12002914008431946A6
:100AE0007047202A06DBCB17203A41FA02F043EA8E
:100AF000E07306E041FA02F3D040C2F120029140D7
:100B00000843194670470029A8BF7047401C490098
:100B100008BF20F00100704710B4B0FA80FC00FA62
:100B20000CF050EA010404BF10BC704749B1CCF18D
:100B3000200421FA04F411FA0CF118BF0121214319
:100B40000843A3EB0C01CB1D4FEA00614FEA1020D4
:100B500042BF002010BC704700EBC3501044002976
:100B6000A4BF10BC7047401C490008BF20F0010022
:100B700010BC704710B5141E73F1000408DA401C55
:100B800041F1000192185B411A4301D120F00100AC
:100B900010BD2DE9F04D92469B4611B1B1FA81F29C
:100BA00002E0B0FA80F220329046FFF77BFF044665
:100BB0000F4640EA0A0041EA0B0153465A460843F1
:100BC00013D0114653EA010019D0C8F14002504633
:100BD000FFF777FF05460E46504659464246FFF757
:100BE00061FF084305D0012004E020463946BDE8F6
:100BF000F08D0020054346EAE0762C4337430A98FF
:100C00006305E40AA0EB08000022FD0A44EA475409
:100C10000A3002D500200146E9E7010510196941B3
:100C2000DDE9084500196941BDE8F04DA2E72DE96D
:100C3000F04D81EA030404F0004B21F00045144616
:100C40004FF0000A23F0004150EA050220D054EA98
:100C500001021DD0C5F30A570246C5F31303C1F3C1
:100C60001300C1F30A5640F4801543F48013A7EB38
:100C70000608101BD64608F2FD3873EB050002D3B8
:100C800008F1010801E092185B41B8F1000F03DAA6
:100C900000200146BDE8F08D00204FF4801106468B
:100CA00084460EE0171B73EB050705D3121B63EB9D
:100CB000050306434CEA010C49084FEA300092183C
:100CC0005B4150EA0107EDD152EA030012D082EAFB
:100CD000040083EA0501084305D0101BAB4106D28E
:100CE0000122002306E000224FF0004302E06FF0F3
:100CF000010253101AEB06004CEB085110EB0A00EE
:100D000041EB0B01BDE8F04DFFF734BFC1F30A52D0
:100D1000C1F3130140F2FF3341F480119A4202DA29
:100D200000200146704740F233439A42A2F2334218
:100D300002DC5242FFF7C5BEFFF7B4BE064C074DBA
:100D400006E0E06840F0010394E80700984710349B
:100D5000AC42F6D3FFF7B8FBE8EF010008F0010062
:100D600010B58AB001A804F069FE2B4801904FF439
:100D7000F070ADF8080002208DF80A0008208DF808
:100D80000B002B208DF80C004FF48870ADF80E008E
:100D90000A208DF8100004208DF811000C208DF829
:100DA00012004002ADF814004FF0204006900620DB
:100DB0008DF8200020208DF8250001208DF82400DA
:100DC0000D2000F0AFFE0446224601A9134804F0AE
:100DD0008DFE0421114804F0A6FD352000F01F020D
:100DE000012191404209920002F1E022C2F8001173
:100DF00000BF00BF0948806940F0010007498861D1
:100E000000BF00BF0846806940F40060886100BFF1
:100E100000200AB010BD0000405489000030084096
:100E200000B58DB0042005F039FA0F4805F05AFAE4
:100E30000E4801F059FA1C220D4906A8FFF771FC73
:100E4000694606A801F09EFA0320059068460599B8
:100E500001F0B2FA40F2013000F0F6FC0348054917
:100E600008600DB000BD000000D2496B0095BA0AC1
:100E700008AD00000000002070B50C4805F0B6FA7F
:100E8000192000F04FFE05462B4605224FF4E131B4
:100E9000074802F001FF044604B904E04C2205A112
:100EA00009A007F0DBFA204670BD00000B0001002E
:100EB000006008405352435C426F6172645C626F31
:100EC0006172642E630000006B5374617475735F0C
:100ED00053756363657373203D3D20726573756C54
:100EE0007400000010B586B04FF48E7000F0ACFCBA
:100EF000012202212D2001F0D7F904A805F0DEFB24
:100F000004A90E4805F038FC05208DF80C000120DE
:100F10008DF80D0005208DF80E000A2000F002FE6D
:100F2000044602A84FF47A73012203A9CDE90040D8
:100F3000024805F0D3FC06B010BD00000050084088
:100F400010B50D2000F0CEFC0B2000F0CBFC40F2E1
:100F500001731D220021FE4804F059FC40F2017388
:100F60001E220021FA4804F052FC40F206731222BD
:100F70000021F74804F04BFC40F2067313220021D5
:100F8000F34804F044FC40F2067314220021F048B8
:100F900004F03DFC40F2067315220021EC4804F0F9
:100FA00036FC40F2067305220121E94804F02FFCCB
:100FB00040F2067306220121E54804F028FC40F2C5
:100FC000067307220121E24804F021FC40F2067377
:100FD00008220121DE4804F01AFC40F206731A22AE
:100FE0000121DB4804F013FC40F206731B220121AF
:100FF000D74804F00CFC40F2067310220121D448BB
:1010000004F005FC40F2067317220121D04804F0D9
:10101000FEFB40F2067318220121CD4804F0F7FBD5
:1010200040F2067319220121C94804F0F0FB40F296
:10103000067319220321C64804F0E9FB40F2067347
:1010400002220021C24804F0E2FB40F206730322B0
:101050000021BF4804F0DBFB40F2067304220021AC
:10106000BB4804F0D4FB40F2067305220021B848C7
:1010700004F0CDFB40F2067306220021B44804F0D0
:10108000C6FB40F2067307220021B14804F0BFFB03
:1010900040F2067308220021AD4804F0B8FB40F28C
:1010A000067309220021AA4804F0B1FB40F206733E
:1010B00013220121A64804F0AAFB40F20673142271
:1010C0000121A34804F0A3FB40F20673152201217D
:1010D0009F4804F09CFB40F20673042201219C48C7
:1010E00004F095FB40F206731C220121984804F09D
:1010F0008EFB40F206731D220121954804F087FB08
:1011000040F206731E220121914804F080FB40F258
:1011100006731F2201218E4804F079FB40F206730A
:10112000092201218A4804F072FB40F206730A2268
:101130000121874804F06BFB40F206730B2201216A
:10114000834804F064FB40F206730C2201218048BE
:1011500004F05DFB40F206730D2201217C4804F08F
:1011600056FB40F206730E220121794804F04FFB32
:1011700040F206730F220121754804F048FB40F24B
:1011800006730F220021724804F041FB4FF4807374
:101190001B2202216E4804F03AFB40F20133152273
:1011A00002216B4804F033FB40F201331622022186
:1011B000674804F02CFB40F20133172202216448F7
:1011C00004F025FB40F2013318220221604804F0AC
:1011D0001EFB40F20133192202215D4804F017FB87
:1011E00040F201331C220221594804F010FB40F266
:1011F00001331D220221564804F009FB40F201335D
:101200001E220221524804F002FB40F201331F2249
:1012100002214F4804F0FBFA40F20133002203217F
:101220004B4804F0F4FA40F201330122032148480C
:1012300004F0EDFA40F2013305220321444804F0A2
:10124000E6FA40F2013306220321414804F0DFFAB6
:1012500040F20133072203213D4804F0D8FA40F25E
:101260000133082203213A4804F0D1FA40F2013355
:1012700009220321364804F0CAFA40F201230D2264
:101280000221334804F0C3FA40F201330B22022159
:101290002F4804F0BCFA40F20133102202212C48FE
:1012A00004F0B5FA40F201330E220221284804F07E
:1012B000AEFA40F201330F220221254804F0A7FACA
:1012C00040F2067312220021214804F0A0FA40F2F5
:1012D0000673132200211E4804F099FA40F20673A7
:1012E000142200211A4804F092FA40F206731522E3
:1012F0000021174804F08BFA40F206730522012101
:10130000134804F084FA40F20673062201211048C3
:1013100004F07DFA40F20673072201210C4804F024
:1013200076FA40F2067308220121094804F06FFAA8
:1013300040F206731A220121054804F068FA40F2CF
:1013400006731B220121024804F061FA02E000004A
:101350000010004040F2067310220121A44804F05E
:1013600056FA40F2067317220121A14804F04FFA01
:1013700040F20673182201219D4804F048FA40F219
:101380000673192201219A4804F041FA40F20673CB
:1013900019220321964804F03AFA40F20673022219
:1013A0000021934804F033FA40F20673032200212F
:1013B0008F4804F02CFA40F20673042200218C4876
:1013C00004F025FA40F2067305220021884804F053
:1013D0001EFA40F2067306220021854804F017FA2F
:1013E00040F2067307220021814804F010FA40F20F
:1013F0000673082200217E4804F009FA40F20673C1
:10140000092200217A4804F002FA40F206731322FE
:101410000121774804F0FBF940F206731422012100
:10142000734804F0F4F940F2067315220121704864
:1014300004F0EDF940F20673042201216C4804F037
:10144000E6F940F206731C220121694804F0DFF935
:1014500040F206731D220121654804F0D8F940F2DC
:1014600006731E220121624804F0D1F940F206738E
:101470001F2201215E4804F0CAF940F206730922D6
:1014800001215B4804F0C3F940F206730A220121EE
:10149000574804F0BCF940F206730B22012154486E
:1014A00004F0B5F940F206730C220121504804F013
:1014B000AEF940F206730D2201214D4804F0A7F960
:1014C00040F206730E220121494804F0A0F940F2CF
:1014D00006730F220121464804F099F940F2067381
:1014E0000F220021424804F092F940F201731722C2
:1014F00003213F4804F08BF940F2017318220321C5
:101500003B4804F084F940F20313122202213848C8
:1015100004F07DF940F2031313220221344804F051
:1015200076F940F2031314220221314804F06FF9D6
:101530004FF48173012204212D4804F068F94FF41F
:101540008173022204212A4804F061F94FF4817367
:1015500003220421264804F05AF940F201130B2219
:101560000321234804F053F90120224908604FF475
:101570009373172200211E4804F049F94FF4937326
:10158000182200211A4804F042F94FF493731922EB
:101590000021174804F03BF94FF493731A220021FD
:1015A000134804F034F94FF493731B2200211048C0
:1015B00004F02DF94FF493731C2200210C4804F021
:1015C00026F940F2211317220321094804F01FF9DC
:1015D00040F2211318220321054804F018F94FF4B2
:1015E00080731B220221024804F011F910BD000093
:1015F000001000402004004000B591B000208DF89C
:1016000040008DF8410001208DF842008DF80C005B
:1016100043F609500490122005902A20069043209A
:101620000790122008900C2000F07CFA1749B1FBBB
:10163000F0F0801D0A9005990A98084409903C2012
:101640000B900C9043200D900C200E9002208DF8F2
:101650003C0000208DF800008DF8010002208DF87C
:1016600002002320ADF804000020ADF80600092098
:101670008DF8080010A9064802F044FE01236A46CE
:1016800003A9034802F0B0FC11B000BD00CA9A3BA8
:10169000001008403EB500200090019002904FF4E9
:1016A000847000F0D1F800F00DFD04460B48B4FB47
:1016B000F0F0451E00222946242000F0F5FD684682
:1016C00005F032FA6946064805F078FA08F046FF58
:1016D0000449034805F012FB3EBD000080A812013A
:1016E00000000840C800002010B50848006800B19C
:1016F00005E04FF4487206A10BA006F0AFFE0348C8
:1017000001680D480D4A1268904710BD4400002042
:101710005352435C447269766572735C66736C5FA6
:101720006D63616E2E630000735F6D63616E48616F
:101730006E646C655B305D0000D009404C00002099
:1017400010B50848006800B105E040F2273206A154
:101750000BA006F083FE034801680D480D4A12688D
:10176000904710BD440000205352435C4472697698
:101770006572735C66736C5F6D63616E2E630000EF
:10178000735F6D63616E48616E646C655B305D00B4
:1017900000D009404C00002010B50848406800B156
:1017A00005E04FF44C7206A10BA006F057FE03486B
:1017B00041680D480D4A1268904710BD4400002052
:1017C0005352435C447269766572735C66736C5FF6
:1017D0006D63616E2E630000735F6D63616E4861BF
:1017E0006E646C655B315D0000E009404C000020D8
:1017F00010B50848406800B105E040F2373206A154
:101800000BA006F02BFE034841680D480D4A1268F4
:10181000904710BD440000205352435C44726976E7
:101820006572735C66736C5F6D63616E2E6300003E
:10183000735F6D63616E48616E646C655B315D0002
:1018400000E009404C000020F0B500240F4D0023BB
:1018500016E003EB4306B600F040C1B270B1C0F32E
:101860000326761EF2B21F2905D10126B707FE64B2
:10187000074E326203E045F8212000E001245B1CA2
:10188000022B01D8002CE4D0F0BD00008002004003
:1018900000000440010A032905D201228240054BC1
:1018A00043F8212005E001229307DA648240024BCD
:1018B0005A6170472002004000000440010A0329D9
:1018C00005D201228240054B43F8212005E0012288
:1018D0009307DA648240024B5A617047200200404D
:1018E00000000440010A032905D201228240054B71
:1018F00043F8212005E001229307DA648240024B7D
:101900005A617047200200400000044068B10C4951
:10191000096841F400710A4A1160111D096841F01B
:1019200008020749091D0A6008E04FF40071044AE3
:10193000103A1160082202490C390A607047000011
:101940003006004000B51148006810B900F05CFA9C
:1019500000BD0E480068012802D100F059FBF7E7EE
:101960000A480068022802D100F078FCF0E7074836
:101970000068032802D100F023F8E9E70348006873
:10198000072801D10020E3E70020E1E7A40200409E
:1019900010B500BF0849096A01F003010C4614B1F3
:1019A000012C05D102E000F04DF803E0034801E00E
:1019B000002000BF00BF10BD00000440001BB700A6
:1019C00001480068704700001000002000B51C4866
:1019D000006810B900F036F800BD19480068012809
:1019E00002D100F06DF8F7E715480068022802D12F
:1019F00000F03AFCF0E712480068032802D100F03A
:101A000003FAE9E70E480068042802D100F000FB61
:101A1000E2E70B480068052802D100F01FFCDBE775
:101A200007480068062802D1FFF7CAFFD4E7044838
:101A30000068072802D100F04BFACDE70020CBE781
:101A40008802004000B51D48006830B91B48001FDF
:101A5000006810B900F0CAF900BD1848006838B92C
:101A60001648001F0068012802D100F029F8F3E7AA
:101A70001248006838B91148001F0068022802D1D6
:101A800000F0F2FBE8E70D48006838B90B48001F8A
:101A90000068032802D100F0B7F9DDE707480068C5
:101AA000022802D100F0B4FAD6E7044800680328FF
:101AB00002D100F00DFACFE70020CDE7840200400C
:101AC00000487047001BB70010B50446144850F892
:101AD000240010B900F08AF910BD114850F8240014
:101AE000012802D100F090F9F6E70D4850F82400E3
:101AF000022802D100F08CFAEEE7094850F82400E1
:101B0000032802D100F0A0F9E6E7054850F82400C8
:101B1000042803D1152000F005F8DDE70020DBE7FD
:101B2000B002004070B50546232D70D2DFE805F005
:101B300012161F5B29333D476F51CFD9F2F0EFEEFC
:101B40005F63676F6B7092CBEDECEBEAE9E8E7E679
:101B5000E5E4E300FFF776FF044642E1FFF772FF9A
:101B6000A1490968C9B2491CB0FBF1F439E1FFF79A
:101B70002DFF9D49091D0968C9B2491CB0FBF1F44C
:101B80002FE100F09FFA984910310968C9B2491C49
:101B9000B0FBF1F425E1FFF7D5FE93491431096854
:101BA000C9B2491CB0FBF1F41BE100F017FB8E49F0
:101BB00018310968C9B2491CB0FBF1F411E100F019
:101BC0002DFB89491C310968C9B2491CB0FBF1F4ED
:101BD00007E100F05DF984492C310968C9B2491C5C
:101BE000B0FBF1F4FDE000F00FF90446F9E000F07D
:101BF000FDF80446F5E0FFF763FF0446F1E000F06E
:101C000007FA0446EDE000F02FFB0446E9E0E6E0C9
:101C100075489838006810B9FFF714FF18E072484B
:101C200098380068012802D100F0F2F910E06E48FF
:101C300098380068022802D100F0D8F808E06A4815
:101C400098380068032802D100F0DEF800E0002098
:101C50000446C6E064489438006810B900F0C6F83D
:101C600028E0614894380068012802D100F0CCF8DF
:101C700020E05D4894380068022802D100F0C8F9DD
:101C800018E0594894380068032802D100F0DCF8C5
:101C900010E0554894380068042802D1FFF7D2FEBE
:101CA00008E0514894380068052802D100F0DCFAB9
:101CB00000E0002004464C4828300068C0B2401CB8
:101CC000B4FBF0F48DE0FFF763FE044689E000F01A
:101CD000A5F9454934310968C9B2491CB0FBF1F492
:101CE0007FE000F0C1F940493C310968C9B2491CA4
:101CF000B0FBF1F475E06DE067E061E05BE055E0BA
:101D00004FE049E043E03DE037E032E027E01CE00F
:101D100011E0FFE7FFF796FE33490968C9B2491C95
:101D2000B0FBF1F14FF08040D0F8B803C0B2401CD6
:101D3000B1FBF0F455E000F089F82B493031096827
:101D4000C9B2491CB0FBF1F44BE0FFF77BFE26491A
:101D500078390968C9B2491CB0FBF1F441E0FFF7DA
:101D600071FE214974390968C9B2491CB0FBF1F40C
:101D700037E000F069F8044633E00020FFF7A4FEE6
:101D800004462EE00120FFF79FFE044629E00220D2
:101D9000FFF79AFE044624E00320FFF795FE044671
:101DA0001FE00420FFF790FE04461AE00520FFF72D
:101DB0008BFE044615E00620FFF786FE044610E081
:101DC0000720FFF781FE04460BE00820FFF77CFEAA
:101DD000044606E00920FFF777FE044601E00024F0
:101DE00000BF00BF204670BD80030040044800686B
:101DF00000F0100008B1002070470248FCE7000026
:101E000010060040001BB7000B48006800F01000EF
:101E100008B1002070470948006800F0804008B908
:101E20000020F7E70548006800F4804008B1044846
:101E3000F0E70448EEE7000010060040000500400F
:101E400000D8B805006CDC020020704700B50E48D1
:101E5000006810B9FFF7F6FD00BD0B4800680128C7
:101E600002D100F013F8F7E707480068022802D112
:101E7000FFF7CAFFF0E704480068032801D10020FB
:101E8000EAE70020E8E70000F40200400020704785
:101E900000B50E48006848B9FFF7B6FF0B49A831F6
:101EA0000968C9B2491CB0FBF1F000BD07480068E1
:101EB000012802D1FFF784FDF7E7044800680728EE
:101EC00001D10020F1E70020EFE70000E002004030
:101ED0004FF40040704700002DE9F04F89B00446F0
:101EE0000E461746012007904FF0000B05904FF06B
:101EF00002094448864203D9022009B0BDE8F08FA8
:101F00004148864201D20120F7E7B4F57A6F01D249
:101F10000320F2E735460CE00BF1010BBBF1200F7B
:101F200001D90520E9E74FEA4B0000FB06F5002048
:101F3000059036488542EFD3B4F57A6F18D9A5429B
:101F400016D309FB04F1284603F078F9804644F6DD
:101F5000206080450BD909FB04F0B0FBF8F8B8F11C
:101F6000000F04D0B8F1FF0F01D8CDF81C8000BFDE
:101F70000798012802D90020069001E00120069070
:101F80000798B4FBF0F008900898B5FBF0F0B0FBB0
:101F9000F9FA09FB0AF0012101EB400108984843D6
:101FA000B0EB450F01D20AF1010A02AB03AA04A962
:101FB000504608F089FD00200190504608F010FDC1
:101FC000C0F31000F860079808F034FDC0F3090072
:101FD0007860584608F057FDC0F30900B860DDE9A5
:101FE000020140EA0110049940EA8121019841EA86
:101FF0004041069841EAC041059841EA00503860E6
:1020000000207AE78055C820AB904100C02A6410B8
:1020100001480068704700000800002000B5114822
:10202000006810B9FFF70EFD00BD0E4800680128DA
:1020300002D1FFF7EDFFF7E70A480068022802D156
:10204000FFF7E2FEF0E707480068032802D1FFF738
:10205000B7FCE9E703480068072801D10020E3E75F
:102060000020E1E7F002004000B51548006810B913
:10207000FFF7E8FC00BD12480068012802D1FFF715
:10208000C7FFF7E70E480068022802D100F0E6F823
:10209000F0E70B480068032802D1FFF7B5FEE9E737
:1020A00007480068042802D1FFF78AFCE2E70448E9
:1020B0000068072801D10020DCE70020DAE70000F3
:1020C000F802004000B51548006810B9FFF7BAFCE7
:1020D00000BD12480068012802D1FFF799FFF7E719
:1020E0000E480068022802D100F0B8F8F0E70B486B
:1020F0000068032802D1FFF787FEE9E70748006878
:10210000042802D1FFF75CFCE2E7044800680728D6
:1021100001D10020DCE70020DAE70000A002004047
:1021200010B500240F48006800F0070030B1012806
:1021300006D0022808D003280ED109E00A4C0DE091
:10214000FFF7BEFC044609E000F08EF8044605E007
:10215000FFF7BEFE044601E0002400BF00BF20469A
:1021600010BD000090020040001BB7002DE9F047B1
:102170000446FFF7D5FF0746208800F40040F0B979
:10218000D4E9000108F01DFA8146A168206808F032
:1021900008FA8046B7FBF9F7E168206808F0F4F91F
:1021A0008246A7FB0A50064642460023284631468F
:1021B000FEF786FA05460220A5FB005100E03D46E9
:1021C0002846BDE8F087000010B504462046FFF71A
:1021D000CDFF0149086010BD0800002000B50E4881
:1021E000006810B9FFF710FE00BD0B480068012819
:1021F00002D1FFF70DFFF7E707480068022802D178
:1022000000F02CF8F0E704480068072801D100200E
:10221000EAE70020E8E70000A802004000B50E4809
:10222000006810B9FFF7F0FD00BD0B4800680128F9
:1022300002D1FFF7EDFEF7E707480068022802D158
:1022400000F00CF8F0E704480068072801D10020EE
:10225000EAE70020E8E70000AC020040014800681F
:10226000704700000C0000200C48006800F480104B
:1022700008B1002070470A48006800F01F00401CA9
:10228000410007480068C0F34410064B1A5C4CF24A
:1022900050305043B0FBF1F0ECE700001006004076
:1022A00008050040F4AB000010B51346074A1BB107
:1022B0004FF0005442F8204021B94FF0804442F8DA
:1022C000204002E04C1E42F8204010BD00030040B8
:1022D000044A126822F4704141EA0032014B1A604C
:1022E000704700000004004010B504461D488442B9
:1022F00003D80020FFF7ECFF33E01B48844203D8EB
:102300000120FFF7E5FF2CE01848844203D80220A3
:10231000FFF7DEFF25E01648844203D80320FFF7CD
:10232000D7FF1EE01348844203D80420FFF7D0FFF4
:1023300017E01148844203D80520FFF7C9FF10E0D9
:102340000E48844203D80620FFF7C2FF09E00C487C
:10235000844203D80720FFF7BBFF02E00820FFF705
:10236000B7FF10BD001BB70000366E0100512502FB
:102370000087930300D8B805000E2707004495088E
:10238000007A030A2DE9F04104460D46207A00F058
:10239000010008B1666802E0FFF7C2FE06460023AE
:1023A0002A4630462168FFF797FD074620682861D6
:1023B0003846BDE8F0810000F8B504460D463548C2
:1023C0000068002010B10120FFF7A0FA03F07AFFA7
:1023D000162003F06DFF2069FFF786FF65612E4927
:1023E000206808602C49083160680860606840F423
:1023F00080600860091DA0680860A06840F0800047
:102400000860091DE0680860E06840F4003008607A
:10241000207D00F0030018B3204E0846006820F429
:10242000003708460660162003F02EFF46F4003001
:102430001949103108600020009002E00098401C0B
:1024400000900098AC28F9D313481030076047F487
:102450000030114910310860162003F015FF00BF4D
:10246000207D00F0020040B100BF00BF0A48001DFF
:10247000006800F001000028F7D02046FFF7A4FE16
:10248000207D00F0040018B10548006803F02AFF21
:102490000020F8BD9002004080050040D25D04009D
:1024A0000800002010B5002000F018F810BD10B58D
:1024B000012000F013F810BD10B5022000F00EF856
:1024C00010BD10B5032000F009F810BD10B50420B0
:1024D00000F004F810BD0160704700002DE9F041E4
:1024E00004461A4951F8240001680E46174951F86C
:1024F00024003146FFF7EFFF1548005D58B9154835
:1025000050F824000068F0B1124850F82400016827
:102510003046884717E0002513E0012000FA05F750
:1025200006EA070060B10B4850F8240050F8250077
:1025300030B1084850F8240050F82510304688473C
:102540006D1C072DE9D9BDE8F081000044AC000006
:10255000140000200C01002000B591B0FE48006876
:1025600001287DD14105FD48C1600023FC4AFD489A
:102570000168FD4807F0F4F94FF40011F748803086
:10258000C1604215F949F64806F03EFFF84807F0E9
:1025900054FEF84B00220A21F54807F0CFFA00203C
:1025A0001090EEE31098401EEE49096801EB8000A0
:1025B00090ED000AF048D0ED000A20EE200ADFED91
:1025C000EF0A20EE200A8DED0F0AE6480168109808
:1025D00001EB800090ED000AE748D0ED000A20EE04
:1025E000200ADFEDE70A20EE200A8DED0E0A109892
:1025F000401EDC49096801EB800090ED000ADE48CE
:10260000D0ED000A20EE200A8DED050A0598FEF7B0
:10261000EBF99FEDDC0B53EC102BCDE906019DEDA2
:10262000060B51EC100BFEF74EF9CDE908019DEDBC
:10263000080B51EC100BFEF703FA0D90C948016826
:10264000109801EB800090ED000ACB48D0ED000A15
:1026500020EE200A8DED030A0398FEF7C5F900E08D
:10266000FDE39FEDCA0B53EC102BCDE904019DED6A
:10267000040B51EC100BFEF726F9CDE906019DED98
:10268000060B51EC100B81F00041CDE908019DEDE6
:10269000080B51EC100BFEF7D3F90C901098401E6C
:1026A000B049096801EB800090ED000AB248D0ED16
:1026B000000A20EE200ADFEDB70A20EE600A8DED59
:1026C0000B0AA8480168109801EB8000D0ED000AC1
:1026D000A94890ED000A20EE800ADFEDAF0A20EE57
:1026E000200A8DED0A0AAD4890ED000A9FEDAC1A64
:1026F000C1EE000A9DED100AB8EEC00AF4EEC00A61
:10270000F1EE10FA7EDD90ED000ADFEDA60A60EE34
:10271000200A9DED100AB8EEC00AF4EEC00AF1EEF0
:1027200010FAEFDD9149109801EB800090ED000A5E
:10273000F2EE080A80EE201A984890ED000A21EE89
:10274000000A8DED010A0198FEF74EF9CDE904016A
:102750000E98FEF749F99FED940B53EC102BCDE941
:1027600000019DED000B51EC100BFEF705F8CDE9D3
:1027700002019DED040B53EC102B9DED020B51EC6F
:10278000100BFEF79AF8CDE906019DED060B51EC12
:10279000100BFEF70AF900B209900F98FEF724F922
:1027A0009FED830B53EC102BCDE904019DED040B41
:1027B00051EC100BFDF7E0FFCDE906019DED060B96
:1027C00051EC100BFEF7F1F800B208904FF4806066
:1027D000032300906648DDE9081207F044FA6349D4
:1027E000109801EB800090ED000AF2EE080A80EEEE
:1027F000201A6A4890ED000A21EE000A8DED010AC8
:10280000019800E0BEE2FEF7EFF8CDE904010E9872
:10281000FEF7EAF89FED680B53EC102BCDE90001B1
:102820009DED000B51EC100BFDF7A6FFCDE9020169
:102830009DED040B53EC102B9DED020B51EC100B96
:10284000FEF73BF8CDE906019DED060B51EC100BB0
:10285000FEF7ABF800B209900F98FEF7C5F89FEDB0
:10286000580B53EC102BCDE904019DED040B51ECFA
:10287000100BFDF781FFCDE906019DED060B51EC34
:10288000100BFEF792F800B208904FF4806003231B
:1028900000903748DDE9081207F0E5F93349109850
:1028A00001EB800090ED000AF2EE080A80EE201A9B
:1028B0003A4890ED000A21EE000A8DED010A0198D8
:1028C000FEF792F8CDE904010E98FEF78DF89FED22
:1028D0003E0B53EC102BCDE900019DED000B51ECAC
:1028E000100BFDF749FFCDE902019DED040B53EC00
:1028F000102B9DED020B51EC100BFDF7DEFFCDE927
:1029000006019DED060B51EC100BFEF74EF800B2E0
:1029100009900F98FEF768F89FED2D0B53EC102BE4
:10292000CDE904019DED040B51EC100BFDF724FFE4
:10293000CDE906019DED060B51EC100BFEF735F8C5
:1029400000B208904FF48060032300900848DDE94E
:10295000081207F088F93FE07C00002000E2084000
:10296000902600207000002078260020903600205D
:102970008C48002000120010C400002000007043AA
:10298000000008430000000000007440ABAAAAAA9F
:10299000AAAA6640000020430000B442B80000200C
:1029A0000000484300009643000000000000614022
:1029B0000000000000006E40E90BFA82BEA04F400C
:1029C000FA82BEA02FE85B405655555555556C40D0
:1029D0000000000000007940FE49109801EB8000E3
:1029E00090ED000AF2EE080A80EE201AFA4890ED07
:1029F000000A21EE000A8DED010A0198FDF7F4FFAF
:102A0000CDE904010C98FDF7EFFF1FED200B53EC0F
:102A1000102BCDE900019DED000B51EC100BFDF7E3
:102A2000ABFECDE902019DED040B53EC102B9DEDA7
:102A3000020B51EC100BFDF740FFCDE906019DEDB7
:102A4000060B51EC100BFDF7B0FF00B209900D988A
:102A5000FDF7CAFF1FED350B53EC102BCDE9040138
:102A60009DED040B51EC100BFDF786FECDE9060140
:102A70009DED060B51EC100BFDF797FF00B208908F
:102A80004FF4806003230090D448DDE9081207F07A
:102A9000EAF8D049109801EB800090ED000AB2EE00
:102AA000081AC0EE010A9DED0C0A1FED451A30EE22
:102AB000010AC94890ED001A00EEC10ABDEEC00A35
:102AC00010EE100A00B209904FF4806000909DED66
:102AD0000D0A5FED500A30EE200ABDEEC00A10EE7E
:102AE000100A00B2032308900146BC48099A07F077
:102AF000BAF8B849109801EB800090ED000AF2EEA8
:102B0000080A80EE201AB44890ED000A21EE000A6F
:102B10008DED010A0198FDF767FFCDE904010A98E0
:102B2000FDF762FF1FED670B53EC102BCDE90001A1
:102B30009DED000B51EC100BFDF71EFECDE90201DF
:102B40009DED040B53EC102B9DED020B51EC100B83
:102B5000FDF7B3FECDE906019DED060B51EC100B20
:102B6000FDF723FF00B209904FF4806000909DEDC7
:102B70000B0A5FED780A30EE200ABDEEC00A10EEB7
:102B8000100A00B20323089001469448099A07F0FE
:102B90006AF89049109801EB800090ED000AB2EEBF
:102BA000081AC0EE010A9DED0A0A1FED851A30EEE3
:102BB000010A894890ED001A00EEC10ABDEEC00A74
:102BC00010EE100A00B209900B98FDF70DFF1FEDF3
:102BD000930B53EC102BCDE904019DED040B51EC4C
:102BE000100BFDF7C9FDCDE906019DED060B51EC7B
:102BF000100BFDF7DAFE00B208904FF4806003235B
:102C000000907648DDE9081207F02DF87149109818
:102C100001EB800090ED000AF2EE080A80EE201A27
:102C20006D4890ED000A21EE000A8DED010A019831
:102C3000FDF7DAFECDE904010E98FDF7D5FE1FED94
:102C40009E0B53EC102BCDE900019DED000B51ECD8
:102C5000100BFDF791FDCDE902019DED040B53EC46
:102C6000102B9DED020B51EC100BFDF726FECDE96C
:102C700006019DED060B51EC100BFDF796FE00B220
:102C800009900F98FDF7B0FE1FEDB30B53EC102B1E
:102C9000CDE904019DED040B51EC100BFDF76CFD2B
:102CA000CDE906019DED060B51EC100BFDF77DFE05
:102CB00000B208904FF48060032300904748DDE99C
:102CC000081206F0D0FF4349109801EB8000D0EDC8
:102CD000000AB2EE081A80EE810A3F48D0ED000AE1
:102CE00020EE200A8DED010A0198FDF77DFECDE969
:102CF00004010E98FDF778FE1FEDD10B53EC102B5D
:102D0000CDE900019DED000B51EC100BFDF734FDFA
:102D1000CDE902019DED040B53EC102B9DED020B50
:102D200051EC100BFDF7C9FDCDE906019DED060B39
:102D300051EC100BFDF739FE00B209900F98FDF72A
:102D400053FE1FEDDD0B53EC102BCDE904019DED7F
:102D5000040B51EC100BFDF70FFDCDE906019DEDC5
:102D6000060B51EC100BFDF720FE00B208904FF45B
:102D70008060032300901948DDE9081206F073FF14
:102D80003DE3FDE3164890ED000A1FEDFB1AC1EE8E
:102D9000000A9DED100AB8EEC00AF4EEC00AF1EE8A
:102DA00010FA7CD890ED000A9FED0E1AC1EE000AD1
:102DB0009DED100AB8EEC00AF4EEC00AF1EE10FA6A
:102DC0006DDD0449109801EB8000D0ED000AB2EEF1
:102DD000081A09E090360020B80000208C48002036
:102DE000BC0000200000C84380EE810AFE48D0ED00
:102DF000000A20EE200A8DED010A0198FDF7F4FD8E
:102E0000CDE904010E98FDF7EFFD9FEDF80B53ECB3
:102E1000102BCDE900019DED000B51EC100BFDF7DF
:102E2000ABFCCDE902019DED040B53EC102B9DEDA5
:102E3000020B51EC100BFDF740FDCDE906019DEDB5
:102E4000060B51EC100BFDF7B0FD00B209900F9886
:102E5000FDF7CAFD9FEDE70B53EC102B00E0FDE3FF
:102E6000CDE904019DED040B51EC100BFDF784FC42
:102E7000CDE906019DED060B51EC100BFDF795FD1C
:102E800000B20890DD4803230090DD48DDE9081218
:102E900006F0E9FEDB49109801EB800000E0AFE2AC
:102EA00090ED000AF2EE080A80EE201ACE4890ED6E
:102EB000000A21EE000A8DED010A0198FDF794FD4C
:102EC000CDE904010E98FDF78FFD9FEDCF0B53EC7C
:102ED000102BCDE900019DED000B51EC100BFDF71F
:102EE0004BFCCDE902019DED040B53EC102B9DED45
:102EF000020B51EC100BFDF7E0FCCDE906019DED56
:102F0000060B51EC100BFDF750FD00B209900F9825
:102F1000FDF76AFD9FEDBE0B53EC102BCDE90401CC
:102F20009DED040B51EC100BFDF726FCCDE90601DD
:102F30009DED060B51EC100BFDF737FD00B208902C
:102F4000AE4803230090AE48DDE9081206F08BFE80
:102F5000AC49109801EB8000D0ED000AB2EE081ADF
:102F600080EE810AA048D0ED000A20EE200A8DED07
:102F7000010A0198FDF738FDCDE904010E98FDF72F
:102F800033FD9FEDA50B53EC102BCDE900019DED1A
:102F9000000B51EC100BFDF7EFFBCDE902019DEDAD
:102FA000040B53EC102B9DED020B51EC100BFDF7B5
:102FB00084FCCDE906019DED060B51EC100BFDF7ED
:102FC000F4FC00B209900F98FDF70EFD9FED940BF5
:102FD00053EC102BCDE904019DED040B51EC100BCB
:102FE000FDF7CAFBCDE906019DED060B51EC100B78
:102FF000FDF7DBFC00B20890804803230090804876
:10300000DDE9081206F02FFE7E49109801EB8000E2
:10301000D0ED000AB2EE081A80EE810A7248D0EDB7
:10302000000A20EE200A8DED010A0198FDF7DCFC74
:10303000CDE904010C98FDF7D7FC9FED7B0B53EC19
:10304000102BCDE900019DED000B51EC100BFDF7AD
:1030500093FBCDE902019DED040B53EC102B9DED8C
:10306000020B51EC100BFDF728FCCDE906019DED9C
:10307000060B51EC100BFDF798FC00B209900D986F
:10308000FDF7B2FC9FED6A0B53EC102BCDE9040168
:103090009DED040B51EC100BFDF76EFBCDE9060125
:1030A0009DED060B51EC100BFDF77FFC00B2089074
:1030B0005248032300905248DDE9081206F0D3FD80
:1030C0005049109801EB800090ED000AB2EE081A0A
:1030D000C0EE010A9DED0C0A9FED571A30EE010A71
:1030E000414890ED001A00EEC10ABDEEC00A10EE94
:1030F000100A00B20990414800909DED0D0ADFEDE5
:103100004F0A30EE200ABDEEC00A10EE100A00B2DF
:103110000323089001463A48099A06F0A4FD39496C
:10312000109801EB8000D0ED000AB2EE081A80EE94
:10313000810A2D48D0ED000A20EE200A8DED010A0B
:103140000198FDF751FCCDE904010A98FDF74CFC0C
:103150009FED350B53EC102BCDE900019DED000BDD
:1031600051EC100BFDF708FBCDE902019DED040BBE
:1031700053EC102B9DED020B51EC100BFDF79DFB5A
:10318000CDE906019DED060B51EC100BFDF70DFC92
:1031900000B20990194800909DED0B0ADFED270A57
:1031A00030EE200ABDEEC00A10EE100A00B2032372
:1031B000089001461248099A06F055FD11491098E9
:1031C00001EB800090ED000AB2EE081AC0EE010A91
:1031D0009DED0A0A9FED181A30EE010A024890EDA3
:1031E000001A00EEC10A2BE0BC0000200000000025
:1031F000000061400000000000006E40E0FF0100A0
:103200008C48002090360020E90BFA82BEA04F4087
:10321000FA82BEA02FE85B405655555555556C4077
:103220000000000000007940ABAAAAAAAAAA664042
:1032300000000000000074400000B4420000204381
:10324000BDEEC00A10EE100A00B209900B98FDF70F
:10325000CBFB1FED090B53EC102BCDE904019DEDC9
:10326000040B51EC100BFDF787FACDE906019DED3B
:10327000060B51EC100BFDF798FB00B20890FE48CE
:1032800003230090FD48DDE9081206F0ECFCFC4940
:10329000109801EB8000D0ED000AB2EE081A80EE23
:1032A000810AF848D0ED000A20EE200A8DED010ACF
:1032B0000198FDF799FBCDE904010E98FDF794FB09
:1032C0001FED2B0B53EC102BCDE900019DED000BF6
:1032D00051EC100BFDF750FACDE902019DED040B06
:1032E00053EC102B9DED020B51EC100BFDF7E5FAA2
:1032F000CDE906019DED060B51EC100BFDF755FBDA
:1033000000B209900F98FDF76FFB1FED3F0B53ECD8
:10331000102BCDE904019DED040B51EC100BFDF7D2
:103320002BFACDE906019DED060B51EC100BFDF7D4
:103330003CFB00B20890D04803230090CF48DDE961
:10334000081206F090FCCE49109801EB8000D0EDF9
:10335000000AB2EE081A80EE810ACA48D0ED000ACF
:1033600020EE200A8DED010A0198FDF73DFBCDE925
:1033700004010E98FDF738FB1FED5D0B53EC102B8D
:10338000CDE900019DED000B51EC100BFDF7F4F9B8
:10339000CDE902019DED040B53EC102B9DED020BCA
:1033A00051EC100BFDF789FACDE906019DED060BF6
:1033B00051EC100BFDF7F9FA00B209900F98FDF7E8
:1033C00013FB1FED690B53EC102BCDE904019DEDB0
:1033D000040B51EC100BFDF7CFF9CDE906019DED83
:1033E000060B51EC100BFDF7E0FA00B20890A24872
:1033F00003230090A148DDE9081206F034FC10E335
:10340000A14890ED000A9FEDA11AC1EE000A9DEDC2
:10341000100AB8EEC00AF4EEC00AF1EE10FAEED8C7
:103420009749109801EB800090ED000AB2EE081A5F
:10343000C0EE010A944890ED000A20EE800A8DED5E
:10344000010A0198FDF7D0FACDE904010E98FDF7C5
:10345000CBFA1FED9A0B53EC102BCDE900019DED3B
:10346000000B51EC100BFDF787F9CDE902019DED42
:10347000040B53EC102B9DED020B51EC100BFDF7E0
:103480001CFACDE906019DED060B51EC100BFDF782
:103490008CFA00B209900F98FDF7A6FA1FEDAB0B5E
:1034A00053EC102BCDE904019DED040B51EC100BF6
:1034B000FDF762F9CDE906019DED060B51EC100B0D
:1034C000FDF773FA00B208904FF4FC30032300902C
:1034D0006A48DDE9081206F0C6FB6949109801EB5D
:1034E0008000D0ED000AB2EE081A80EE810A66482C
:1034F000D0ED000A20EE200A8DED010A0198FDF7BB
:1035000073FACDE904010E98FDF76EFA1FEDC20BB8
:1035100053EC102BCDE900019DED000B51EC100B8D
:10352000FDF72AF9CDE902019DED040B53EC102BB8
:103530009DED020B51EC100BFDF7BFF9CDE9060133
:103540009DED060B51EC100BFDF72FFA00B2099020
:103550000F98FDF749FA1FEDD20B53EC102BCDE974
:1035600004019DED040B51EC100BFDF705F9CDE9BD
:1035700006019DED060B51EC100BFDF716FA00E06D
:1035800052E200B208904FF4FC30032300903B4815
:10359000DDE9081206F067FB3949109801EB80005D
:1035A00090ED000AB2EE081AC0EE010A364890ED1E
:1035B000000A20EE800A8DED010A0198FDF714FA49
:1035C000CDE904010E98FDF70FFA1FEDED0B53EC5A
:1035D000102BCDE900019DED000B51EC100BFDF718
:1035E000CBF8CDE902019DED040B53EC102B9DEDC2
:1035F000020B51EC100BFDF760F9CDE906019DEDD2
:10360000060B51EC100BFDF7D0F900B209900F98A2
:10361000FDF7EAF99FED1E0B53EC102BCDE90401E9
:103620009DED040B51EC100BFDF7A6F8CDE906015A
:103630009DED060B51EC100BFDF7B7F900B20890A9
:103640004FF4FC30032300900C48DDE9081206F02B
:103650000AFB0B49109801EB800000E0EFE190EDD0
:10366000000AB2EE081AC0EE010A074890ED000AFF
:1036700020EE800A10E00000E0FF01008C480020EE
:1036800090360020BC000020C00000200000C8438D
:1036900000000000000079408DED010A0198FDF75F
:1036A000A3F9CDE904010C98FDF79EF99FEDE50B18
:1036B00053EC102BCDE900019DED000B51EC100BEC
:1036C000FDF75AF8CDE902019DED040B53EC102BE8
:1036D0009DED020B51EC100BFDF7EFF8CDE9060163
:1036E0009DED060B51EC100BFDF75FF900B2099050
:1036F0000D98FDF779F99FEDD50B53EC102BCDE923
:1037000004019DED040B51EC100BFDF735F8CDE9EC
:1037100006019DED060B51EC100BFDF746F900B2CA
:1037200008904FF4FC3003230090CA48DDE90812EA
:1037300006F099FAC849109801EB800090ED000A54
:10374000B2EE081AC0EE010A9DED0C0A9FEDC31AF5
:1037500030EE010AC24890ED001A00EEC10ABDEE3B
:10376000C00A10EE100A00B209904FF4FC3000902D
:103770009DED0D0ADFEDBB0A30EE200ABDEEC00A5A
:1037800010EE100A00B2032308900146B148099ACE
:1037900006F069FAB049109801EB800090ED001A2C
:1037A000B2EE080AC1EE000AAD4890ED000A20EE24
:1037B000800A8DED010A0198FDF716F9CDE90401A3
:1037C0000A98FDF711F99FED9F0B53EC102BCDE9F3
:1037D00000019DED000B51EC100BFCF7CDFFCDE986
:1037E00002019DED040B53EC102B9DED020B51ECEF
:1037F000100BFDF762F8CDE906019DED060B51ECCB
:10380000100BFDF7D2F800B209904FF4FC30009095
:103810009DED0B0ADFED930A30EE200ABDEEC00AE3
:1038200010EE100A00B20323089001468948099A55
:1038300006F019FA8849109801EB800090ED000A13
:10384000B2EE081AC0EE010A9DED0A0A9FED831A36
:1038500030EE010A824890ED001A00EEC10ABDEE7A
:10386000C00A10EE100A00B209900B98FDF7BCF8E0
:103870009FED760B53EC102BCDE904019DED040B6D
:1038800051EC100BFCF778FFCDE906019DED060B1E
:1038900051EC100BFDF789F800B208904FF4FC30A2
:1038A000032300906B48DDE9081206F0DCF96A4951
:1038B000109801EB8000D0ED000AB2EE081A80EEFD
:1038C000810A6748D0ED000A20EE200A8DED010A3A
:1038D0000198FDF789F8CDE904010E98FDF784F809
:1038E0009FED610B53EC102BCDE900019DED000B1A
:1038F00051EC100BFCF740FFCDE902019DED040BEC
:1039000053EC102B9DED020B51EC100BFCF7D5FF87
:10391000CDE906019DED060B51EC100BFDF745F8C6
:1039200000B209900F98FDF75FF89FED510B53EC33
:10393000102BCDE904019DED040B51EC100BFCF7AD
:103940001BFFCDE906019DED060B51EC100BFDF7B9
:103950002CF800B208904FF4FC30032300903D484F
:10396000DDE9081206F07FF93B49109801EB800071
:10397000D0ED000AB2EE081A80EE810A3848D0ED88
:10398000000A20EE200A8DED010A0198FDF72CF8BF
:10399000CDE904010E98FDF727F89FED370B53ECA6
:1039A000102BCDE900019DED000B51EC100BFCF745
:1039B000E3FECDE902019DED040B53EC102B9DEDD0
:1039C000020B51EC100BFCF778FFCDE906019DEDE1
:1039D000060B51EC100BFCF7E8FF00B209900F98B2
:1039E000FDF702F81FEDD60B53EC102BCDE90401C7
:1039F0009DED040B51EC100BFCF7BEFECDE906016A
:103A00009DED060B51EC100BFCF7CFFF00B20890B8
:103A10004FF4FC30032300900E48DDE9081206F055
:103A200022F91098401C10901098B0F5F07FFEF627
:103A3000B9AD084806F00AFB00201149086011B032
:103A400000BD0000ABAAAAAAAAAA66400000000016
:103A5000000074408C480020903600200000B442E2
:103A6000C0000020000020435655555555556C4068
:103A7000FA82BEA02FE85B40E90BFA82BEA04F405D
:103A80007C0000202DE9F04100274BE0274850F84A
:103A9000274004B945E0207B4511207B00F01F063C
:103AA000A0682030C5EBC50101EB051100EB8100DA
:103AB000806B0121B140084090B10120B040A16865
:103AC0002031C5EBC50202EB051201EB82018863D0
:103AD000206828B1002301222046D4E900C1E04734
:103AE000A0682030C5EBC50101EB051100EB81009A
:103AF000006C0121B140084090B10121B140A068A3
:103B00002030C5EBC50202EB051200EB8200016418
:103B1000206828B101231A462046D4E900C1E047B5
:103B200000BF7F1C1E2FB1DBBDE8F081000200202A
:103B300010B50348006810B101490868804710BDFE
:103B40001C0000202249096801F0010100293DD034
:103B50001F49096841F001021D490A60091D0968F1
:103B600008B200EE100AB8EEC00ADFED1A0A80EEC5
:103B7000201A19490968194A126801EB820181ED7E
:103B8000001A16490968491C144A1160114609684F
:103B9000B1F5806F1AD110490968114A914206D1D6
:103BA00010490D4A11600E490F4A116005E00C4999
:103BB000094A11600B490C4A11600C49096811B996
:103BC00001210A4A11600021044A11607047000077
:103BD00084010940000000477400002078000020A4
:103BE0007806002078160020700000207C0000205D
:103BF0002DE9F04F07468C46914600203946834612
:103C000001F801BBB9F1000F1ED0DCF8004034B957
:103C10004FF0300B81F800B0401CBDE8F08F10E091
:103C200094FBF3F808FB1345002D05DA2A466FEAEA
:103C3000020B0BF1310500E03035444601F8015B21
:103C4000401C002CECD125E0DCF800602EB94FF0D0
:103C5000300B81F800B0401CDFE719E0B6FBF3FA47
:103C60000AFB13620A2A01D230320DE0A2F10A0BDC
:103C7000DDF824E0BEF1000F02D04FF0410E01E06C
:103C80004FF0610E0BEB0E02564601F8012B401C63
:103C9000002EE3D100BFC0E7FEB505460E46144630
:103CA0001F461048007808B10120FEBD0D48047081
:103CB000052C11D14560684604F0A4F90096094925
:103CC0003A464868694604F0C9F9074805498860DA
:103CD00006490448C16001E00420E6E700BF002077
:103CE000E3E70000FC0000207D83000095810000D8
:103CF0000FB438B50948007820B94FF0FF3038BC10
:103D00005DF814FB05A800900548009A049900F09E
:103D100009F80446002000902046F0E7FC0000204F
:103D2000893F00002DE9F74F92B006468B464FF0D1
:103D30000008C14600200790039001905D4606E10F
:103D4000252C05D02046B0470798401C0790FDE081
:103D50004FF0010A00200690089012E0681C05460A
:103D60000478302C0ADB392C08DCA4F130000699E9
:103D700001EB810100EB4100069002E06D1E012085
:103D8000089008980028E9D006200590681C054690
:103D900000782E281AD100200590089012E0681CA7
:103DA00005460478302C0ADB392C08DCA4F13000FD
:103DB000059901EB810100EB4100059002E06D1EC9
:103DC0000120089008980028E9D000E06D1E681CCA
:103DD00005460478642C11D0692C0FD0662C0DD0C8
:103DE000462C0BD0782C09D0582C07D06F2C05D03E
:103DF000622C03D0702C01D0752C77D1642C01D0AB
:103E0000692C11D11498006802901498001D149028
:103E10000A23012202A909A8CDF800A0FFF7E8FEB5
:103E2000814609A800EB0908582C01D0782C15D13F
:103E3000782C01D14FF0000A149800680190149872
:103E4000001D14901023002201A909A8CDF800A09C
:103E5000FFF7CEFE814609A800EB09086F2C05D0BC
:103E6000622C03D0702C01D0752C28D114980068D6
:103E700001901498001D1490622C09D06F2C04D06E
:103E8000702C08D0752C0CD108E00820039009E0B4
:103E90000220039006E01020039003E00A20039024
:103EA00000E000BF00BFCDF800A0002201A909A8D2
:103EB000039BFFF79DFE814609A800EB090807ABAD
:103EC000009649462020069A00F049F8B8F1000F04
:103ED0003BD005E018F80109B0470798401C07904F
:103EE00098F800000028F5D12FE0FFE7632C0BD1F4
:103EF000149810F8041B1490C8B204900498B047AA
:103F00000798401C079020E0732C19D1149880C8A2
:103F10001490D7B13846FCF728FC814607AB0096D1
:103F200049462020069A00F01AF805E017F8010B20
:103F3000B0470798401C079038780028F6D104E075
:103F40002046B0470798401C079000BF6D1C28789A
:103F5000041E7FF4F5AE079815B0BDE8F08F2DE98B
:103F6000F04780460D4616461C46DDF820902F4649
:103F700005E04046C8472068401C20607F1CB742CF
:103F8000F7DBBDE8F087000001B50748007810B9FD
:103F90004FF0FF3008BD0449486801228B6869462C
:103FA00098470120F6E70000FC0000202DE9F041D1
:103FB00007460E4615460C20FDF7B4FD0949B0FB37
:103FC000F1F000FB06F404F2E7304FF47A71B0FB35
:103FD000F1F4AC4201D3641B00E000242046BDE8AC
:103FE000F081000040420F002DE9FC5F04460E46C0
:103FF00090469946B8F1000F00D004E0DD228FA171
:1040000094A004F02BFA06B104E0DE228BA193A069
:1040100004F024FAB9F1040F00D804E0DF2287A1EC
:1040200090A004F01BFA4546002724E06878182188
:1040300001EAC000297A4FF4BF4202EAC1110843E5
:104040002A7804F5807101EB421108602879C0F3E9
:1040500002100190A87800F003014FF4407201981B
:1040600002EA002008432A7804F5807101EB42112E
:1040700048600A357F1C4F4501D2002DD6D13078DB
:1040800000F00300A06201222046B168FFF78EFF16
:1040900000F00F00206301222046F168FFF786FF41
:1040A00000F00F006063012220463169FFF77EFFB8
:1040B00000F00F00A063012220467169FFF776FF30
:1040C00000F00F00E06300222046B169FFF76EFFA9
:1040D00000F00F00206401222046F169FFF766FF1F
:1040E00000F00F00606401222046316AFFF75EFF96
:1040F00000F01F00A06401222046716AFFF756FFFE
:1041000000F01F00E06401222046B16AFFF74EFF75
:1041100000F01F00206501222046F16AFFF746FFEC
:1041200000F00F00606596F83000002803DD96F877
:104130003000401E00E0002000F00F00A0650027C6
:1041400000E07F1CB7F5FA6FFBD340F283102062CA
:10415000002700E07F1CB7F5FA6FFBD340F2031095
:10416000206202206062002700E07F1CB7F57A7FA2
:10417000FBD3002220467168FFF718FF0009606238
:10418000832020624546002715E0287A00F0F8F8E1
:10419000824628783D4951F82010A88820F4C04272
:1041A00002FA0AF241EA020BDBF8000000900098E4
:1041B00000900A357F1C4F4501D2002DE5D198F8BB
:1041C000010000B3832020624546002717E0287ACB
:1041D00000F0D6F8824628782C4951F82000E9886A
:1041E00021F4C04141F4804101FA0AF140EA010B97
:1041F000DBF800000090009800900A357F1C4F45C6
:1042000001D2002DE3D100202062454600270FE0B7
:10421000297804F5807000EB4110006840F400211B
:104220002A7804F5807000EB421001600A357F1C8B
:104230004F4501D2002DEBD1BDE8FC9F5352435CAA
:10424000447269766572735C66736C5F656D632E2C
:1042500063000000636F6E666967000074696D69D2
:104260006E670000746F74616C4368697073203C02
:104270003D20454D435F44594E414D49435F4D45B7
:104280004D4445565F4E554D00000000240000206F
:1042900070B50546002406E0094850F82400A842FD
:1042A00000D102E0641C002CF6D000BF04B904E089
:1042B000702204A109A004F0D1F8204670BD0000CE
:1042C00084AC00005352435C447269766572735C3F
:1042D00066736C5F656D632E63000000696E7374B6
:1042E000616E6365203C2046534C5F464541545502
:1042F00052455F534F435F454D435F434F554E54C7
:104300000000000070B506460C463046FFF7C0FFBF
:10431000164931F81050280A032805D20121A94076
:10432000134A42F8201005E001218A07D164A94010
:10433000104A516100BF1048006840F080010E48EB
:104340000160006820F080010B480160A0780B49F3
:1043500008606078082101EAC00008498C310860D3
:104360002078B0600120306070BD000080AC00009B
:10437000200200400000044008010040B803004053
:104380000146002001F00302102A01D1082010E0AC
:104390000AB9092000E00820C1F3C103012B02D1B2
:1043A000431CD8B205E0C1F3C103022B01D1831C29
:1043B000D8B201F0800313B1831CD8B201E0431CD2
:1043C000D8B201F020033BB901F01C0313B9431C20
:1043D000D8B201E0831CD8B27047000010B5034882
:1043E00001680348034A1268904710BD340000205A
:1043F000002009403800002000B591B0FD4805F0CC
:104400001CFFFD4BFD4AFE49FE4800F05EFED0B9A0
:10441000FB480078022816D1F7480068552812DBBF
:10442000F94800895530F449096888420BDBF348A4
:104430000068322807DDF1480068C52803DCEF4832
:104440000068F2490860F24BF24AED49ED4800F08D
:104450003CFED0B9EA480078022816D1EC48006842
:10446000A02812DBE8480089A030E94909688842A1
:104470000BDBE8480068322807DDE6480068C528FD
:1044800003DCE4480068E4490860E44BE44ADC49A2
:10449000DC4800F01AFED0B9D9480078022816D1BD
:1044A000DE480068EB2812DBD7480089EB30DB4997
:1044B000096888420BDBDA480068322807DDD848F3
:1044C0000068C52803DCD6480068D6490860D64B8A
:1044D000D64ACB49CB4800F0F8FDE0B9C84800788F
:1044E000022818D1D0480068B0F5A77F13DDC64870
:1044F000008900F24F10CC49096888420BDBCB4899
:104500000068322807DDC9480068C52803DCC748B1
:104510000068C7490860C7A0C94BCA4AFC2100907F
:10452000B44805F0EDFFC84B00224FF4D271B148FA
:1045300005F004FBC54BD4220A21AE4805F0FEFA73
:10454000C34BD4224FF4D271AA4805F0F7FAC14800
:104550000068FCF749FACDE906014FF48060049049
:104560000698CDE90201BCA00090A74800890890F8
:1045700000EBD0704010493000B2B24B0A22014625
:1045800005909C4805F098FFB5480068FCF72CFAA8
:10459000CDE90601AA481F3804900698CDE902012A
:1045A000ADA0009098480089089000EBD0704010B2
:1045B000943000B2A34B0A22014605908D4805F0C5
:1045C0007BFFA8480068FCF70FFACDE906014FF41D
:1045D000FC3004900698CDE902019FA000908A4823
:1045E0000089089000EBD0704010DF3000B2954B8E
:1045F0000A22014605907F4805F05EFF9A48006850
:10460000FCF7F2F9CDE906011F2004900698CDE9E8
:10461000020191A000907C480089089000EBD070C6
:10462000401000F2431000B2864B0A22014605906A
:10463000704805F041FF87480068FCF7D5F9CDE9DF
:104640000601CDE9020189A000906F480089089019
:1046500000EBD0704010493000B27A4BE3220146A3
:104660000590644805F028FF7D480068FCF7BCF918
:10467000CDE90601CDE902017DA0009062480089E4
:10468000089000EBD0704010943000B26D4BE322E4
:1046900001460590574805F00FFF72480068FCF787
:1046A000A3F9CDE90601CDE9020172A000905648B8
:1046B0000089089000EBD0704010DF3000B2614BF1
:1046C000E322014605904B4805F0F6FE6BA00090F2
:1046D0004D480089089000EBD070401000F2431064
:1046E00000B2584BE32201460790424805F0E4FE31
:1046F00046480068C0F1C50000EE100AB8EEC00AD6
:10470000DFED5F0A80EE201A524880ED001A424821
:104710000068C0F1C50000EE100AB8EEC00ADFED77
:10472000580A80EE201A4E4880ED001A3D48006875
:10473000C0F1C50000EE100AB8EEC00ADFED500A65
:1047400080EE201A474880ED001A39480068C0F111
:10475000C50000EE100AB8EEC00ADFED490A80EE8F
:10476000201A414880ED001A2848008800B2ADF8B0
:104770003E0025480089AA30089000EBD070401018
:10478000401F00B2ADF83C001F484089089000EB84
:10479000D0704010C53001B20FA8C1801A480089FE
:1047A000AA30089000EBD0704010401D00B2ADF868
:1047B00040004FF480620FA90E4805F0E7FA124856
:1047C0004089089000EBD07010490988A1EB600087
:1047D000401C00B20C4B024655210790054805F0DD
:1047E000ADF91748009008484089089000EBD07058
:1047F000401047E08C480020840000208800002002
:10480000A40000209046002018360010A8000020C8
:104810008C00002090000020AC00002094000020BC
:1048200098000020B00000209C000020A000002084
:10483000B4000020457175616C697A6572000000F2
:10484000FFFF010000BA00000C24001024480010F3
:10485000305A0010B8000020252E326600000000FB
:10486000BC000020C0000020C40000204C6F770076
:104870004D6964004869676800000000566F6C006D
:1048800000001343C53000B2502332220146079086
:10489000F74805F0ABFBF7480090F74840890890CF
:1048A00000EBD0704010C63000B2502332220146D7
:1048B0000790EF4805F09AFBEE480090EE484089DB
:1048C000089000EBD0704010C53000B20690EA4866
:1048D00000895A3000B2034632220790E448069914
:1048E00005F084FBE3480090E3484089089000EB22
:1048F000D0704010C43000B20690DF4800895A30B2
:1049000000B2034632220790D948069905F06EFBA3
:10491000DA48008800B2ADF83600D748008900F5C3
:10492000A070089000EBD0704010401F00B2ADF8AE
:104930003400D1484089089000EBD0704010C53059
:1049400001B2ADF83A10CC48008900F5A07008908B
:1049500000EBD0704010401D00B2ADF83800C54AE1
:104960001F3A0DA9C24805F011FAC34840890890C2
:1049700000EBD070C1490988A1EB6000401C00B277
:10498000BD4B0246A0210790B94805F0D7F8B948B9
:104990000090B9484089089000EBD0704010C530B5
:1049A00000B29B23322201460790B14805F01EFB5E
:1049B000B0480090B0484089089000EBD07040109B
:1049C000C63000B29B23322201460790A84805F06A
:1049D0000DFBA8480090A8484089089000EBD070D3
:1049E0004010C53000B20690A3480089A53000B23F
:1049F0000346322207909E48069905F0F7FA9D4833
:104A000000909D484089089000EBD0704010C43061
:104A100000B2069098480089A53000B203463222C1
:104A200007909348069905F0E1FA9548008800B28E
:104A3000ADF82E009048008900F5EB70089000EB6F
:104A4000D0704010401F00B2ADF82C008A48408959
:104A5000089000EBD0704010C53001B2ADF83210B4
:104A60008548008900F5EB70089000EBD07040108D
:104A7000401D00B2ADF830004FF4FC320BA97C4869
:104A800005F084F97C484089089000EBD0707C499F
:104A90000988A1EB6000401C00B2774B0246EB2175
:104AA0000790734805F04AF87248009072484089B0
:104AB000089000EBD0704010C53000B2E6233222DF
:104AC000014607906A4805F091FA6A4800906A48E2
:104AD0004089089000EBD0704010C63000B2E62349
:104AE000322201460790624805F080FA6148009042
:104AF00061484089089000EBD0704010C53000B28A
:104B000006905D480089F03000B2034632220790DB
:104B10005748069905F06AFA564800905648408969
:104B2000089000EBD0704010C43000B2069052489C
:104B30000089F03000B20346322207904C480699B3
:104B400005F054FA4F48008800B2ADF826004A48F4
:104B5000008900F29E20089000EBD0704010401FAA
:104B600000B2ADF8240044484089089000EBD070B2
:104B70004010C53001B2ADF82A103F48008900F25C
:104B80009E20089000EBD0704010401D00B2ADF8A0
:104B900028001F2209A9364805F0F8F83648408950
:104BA000089000EBD07037490988A1EB6000401CE9
:104BB00000B2314B024640F24F1107902C4804F0EE
:104BC000BDFF2C4800902C484089089000EBD07025
:104BD0004010C53000B24FF4A57332220146079051
:104BE000234805F003FA23480090234840890890A1
:104BF00000EBD0704010C63000B24FF4A5733222E3
:104C0000014607901A4805F0F1F91A4800901A4831
:104C10004089089000EBD0704010C53000B206907B
:104C20001548008900F5AA7000B2034632220790A9
:104C30000F48069905F0DAF90E4800900E484089B1
:104C4000089000EBD0704010C43000B206900A48C3
:104C5000008900F5AA7000B203463222079004488A
:104C6000069905F0C3F9024805F0F0F911B000BD4E
:104C70008C480020FFFF010018360010AC00002017
:104C8000B0000020B400002010B50848006800B152
:104C900004E0A32206A10DA003F0E0FB114B19686C
:104CA000114B1868014B1A68904710BDE0050020B1
:104CB0005352435C447269766572735C66736C5FD1
:104CC000666C6578636F6D6D2E630000735F666C54
:104CD0006578636F6D6D49727148616E646C657261
:104CE0005B305D000806002094AC000010B5084859
:104CF000406800B104E0AA2206A10DA003F0AEFBBB
:104D0000114B5968114B5868014B5A68904710BDB8
:104D1000E00500205352435C447269766572735C0F
:104D200066736C5F666C6578636F6D6D2E630000F3
:104D3000735F666C6578636F6D6D49727148616E03
:104D4000646C65725B315D000806002094AC000065
:104D500010B50848806800B104E0B22206A10DA099
:104D600003F07CFB114B9968114B9868014B9A68D2
:104D7000904710BDE00500205352435C44726976B1
:104D80006572735C66736C5F666C6578636F6D6D7E
:104D90002E630000735F666C6578636F6D6D49729A
:104DA0007148616E646C65725B325D0008060020BC
:104DB00094AC000010B50848C06800B104E0BA2205
:104DC00006A10DA003F04AFB114BD968114BD8681E
:104DD000014BDA68904710BDE00500205352435C58
:104DE000447269766572735C66736C5F666C657835
:104DF000636F6D6D2E630000735F666C6578636F23
:104E00006D6D49727148616E646C65725B335D00F3
:104E10000806002094AC000010B50848006900B1F5
:104E200004E0C22206A10DA003F018FB114B196982
:104E3000114B1869014B1A69904710BDE00500201D
:104E40005352435C447269766572735C66736C5F3F
:104E5000666C6578636F6D6D2E630000735F666CC2
:104E60006578636F6D6D49727148616E646C6572CF
:104E70005B345D000806002094AC000010B50848C3
:104E8000406900B104E0CB2206A10DA003F0E6FAD0
:104E9000114B5969114B5869014B5A69904710BD24
:104EA000E00500205352435C447269766572735C7E
:104EB00066736C5F666C6578636F6D6D2E63000062
:104EC000735F666C6578636F6D6D49727148616E72
:104ED000646C65725B355D000806002094AC0000D0
:104EE00010B50848006A00B104E0E52206A10DA053
:104EF00003F0B4FA114B196A114B186A014B1A6A84
:104F0000904710BDE00500205352435C447269761F
:104F10006572735C66736C5F666C6578636F6D6DEC
:104F20002E630000735F666C6578636F6D6D497208
:104F30007148616E646C65725B385D000806002024
:104F400094AC000010B50848406A00B104E0ED22BE
:104F500006A10DA003F082FA114B596A114B586A51
:104F6000014B5A6A904710BDE00500205352435C44
:104F7000447269766572735C66736C5F666C6578A3
:104F8000636F6D6D2E630000735F666C6578636F91
:104F90006D6D49727148616E646C65725B395D005C
:104FA0000806002094AC000070B50546002407E018
:104FB000074850F82400A84201D1204670BD641C67
:104FC0000A2CF5DB612203A109A003F047FA0000D7
:104FD00094AC00005352435C447269766572735C12
:104FE00066736C5F666C6578636F6D6D2E63000031
:104FF00066616C736500000070B505460E46284674
:10500000FFF7D2FF0446002C01DA042070BD0C49E2
:1050100031F81400010A032905D201228240094B0C
:1050200043F8212005E001229307DA648240064B11
:105030005A6100BF00223146284600F024F8E5E717
:10504000BCAC0000200200400000044010B5024645
:1050500009B9012010BD01290CDB04290ADCD2F8B2
:10506000F80FCB1C01249C40204008B10120F1E73F
:105070000020EFE7052904D1D2F8F80FC0F3C010E3
:10508000E8E70020E6E770B504460D4616462946D7
:105090002046FFF7DBFF08B9032070BDD4F8F80FF6
:1050A00000F0080038B1D4F8F80F00F00700A8426B
:1050B00001D00120F1E726B145F00800C4F8F80F4F
:1050C00001E0C4F8F85F0020E7E72DE9F8438046E7
:1050D0000C4615461E46404600F08EF80746E7B9D6
:1050E00008F11C0004B96C4681788911217021787F
:1050F00011B1217802290FD135B1C178827802F03F
:105100000F0241EA0221296036B14279017901F0AA
:105110000F0142EA0121316000BF3846BDE8F88343
:105120002DE9FF4105460E462C1D05B104E03F2246
:1051300025A12BA003F092F906B104E0402222A1A0
:1051400029A003F08BF9684600F064F92848019023
:105150004FF48770FCF778FB264A6946304600F02A
:1051600063F905B11EB9042004B0BDE8F0812E60DA
:1051700018212046FBF7EEFA202105F11C00FBF771
:10518000E9FA002003903820A0800020A071A060E0
:105190000120E06003A82061012060610020206000
:1051A000291D286800F028FA07463820A080012031
:1051B000A071A060E06005F11C002061202060610A
:1051C000002020603846CFE75352435C5379737414
:1051D000656D5C66736C5F6674353430362E6300C3
:1051E00068616E646C6500006261736500000000B8
:1051F000A0860100001BB70010B5044604B104E00E
:10520000812206A10BA003F029F90CB9042010BDDE
:10521000211D206800F0F0F9F9E700005352435CCB
:1052200053797374656D5C66736C5F667435343086
:10523000362E630068616E646C65000005E00A4606
:10524000B0FBF1F301FB130110460029F7D17047C1
:1052500010B507480068006840F00100044909687B
:1052600008600448006810B102490868804710BD12
:10527000D0AC00003C00002010B507484068006832
:1052800040F001000449496808600448406810B1D2
:1052900002494868804710BDD0AC00003C000020A7
:1052A00010B50348006810B101490868804710BD77
:1052B0002000002008B5264804F0BFFF25A0284B99
:1052C000284A79210090224805F01AF926A04FF4C7
:1052D0008063244A792100901D4805F011F926A029
:1052E0001F4B1F331F4A92210090194805F008F9FF
:1052F0002CA01B4B1F331B4A0A210090144805F0B9
:10530000FFF82CA04FF4FC33164AE321009010481C
:1053100005F0F6F8304B00224FF4D2710C4804F03F
:105320000DFC2E4B00220A21094804F007FC2C4BEF
:10533000D4220A21064804F001FC2A4BD4224FF45F
:10534000D271034804F0FAFB014804F07FFE08BD67
:105350008C480020666173742020202020200000EB
:10536000E0FF010000BA0000202020202020566924
:105370007375616C00000000416E20417564696FB7
:105380002056697375616C697A6572204279205480
:10539000686520476C6F626574726F7474657273B0
:1053A0000000000057656C636F6D6520746F2048C6
:1053B0006F6D65003C2D2D20436C69636B20486543
:1053C000726520466F722056697375616C697A65E3
:1053D0007273202D2D3E00000C24001000120010CE
:1053E00024480010305A001001F05002C0F8042880
:1053F000704741B1D0F8002802F01F0242F00102CC
:10540000C0F8002805E0D0F8002802F01E02C0F81D
:10541000002870470121017002494160002101729A
:1054200070470000A086010070B505460C46164680
:1054300003212846FFF7E0FD21782846FFF7D9FF32
:1054400032462846616800F077F870BD2DE9F05FBC
:1054500004460E4617469A460025B14606B105E0B9
:105460004FF48B7227A12DA002F0F8FF4FF0000837
:1054700037E0204600F0B4F9054605F0500000B1D1
:1054800031E0C5F3420BBBF1010F06D0BBF1030FB6
:1054900019D0BBF1040F1AD116E0D4F8280809F886
:1054A000010B781E071E03D00120C4F8200809E074
:1054B0000AF0040030B90420C4F82008204600F0A7
:1054C0008FF9054606E000BF40F62A2802E040F6C4
:1054D000312800BF00BFB8F1000F02D04046BDE840
:1054E000F09F002FC5D100BF05F0100010B140F6AD
:1054F0002D20F4E705F0400010B14FF42360EEE7F3
:105500000020ECE75352435C447269766572735C29
:1055100066736C5F6932632E6300000072784275B7
:105520006666000070B504460D46164632462946AA
:10553000204600F045F870BD2DE9F04703460C46C3
:1055400015464FF0000C092021E004FB00F84FEA5B
:105550004808B5FBF8F1B1F5803F02D94FF4803827
:1055600000E08846414604FB00F84FEA480808FB83
:105570001152624502D3BCF1000F02D10F4606461C
:10558000944612B1B1F5803F00D302E0401E0228DC
:10559000DBD200BFA7F101081FFA88F8C3F814880E
:1055A000A6F1020808F00708A6F102094FF0700AF8
:1055B0000AEA091948EA0908C3F82488BDE8F0870F
:1055C00070B504460D461646204600F009F93046EF
:1055D00065F35F00C4F828080220C4F82008002002
:1055E00070BD10B50446204600F0FAF80420C4F857
:1055F0002008002010BD00002DE9F84380460C462D
:10560000002504B105E040F25D1232A137A002F09E
:1056100025FF207800F00100002837D1E06820B392
:10562000217900224046FFF7CBFF0546002D2DD102
:10563000A768E068461E04E0F8B20DF806003F0ACD
:10564000761E002EF8DA042369464046E26800F030
:1056500051F80546D5B9A079012817D1A279217949
:105660004046FFF75FFF054610E0207800F002009B
:1056700030B1A27921794046FFF754FF054605E095
:10568000A27921794046FFF79BFF0546BDB9A07975
:1056900048B9606938B140462368D4E9041200F083
:1056A00029F805460BE0A079012808D1606930B1DE
:1056B00040462368D4E90412FFF7C8FE054640F6C9
:1056C0002A20854202D14046FFF78BFF2846BDE8DD
:1056D000F88300005352435C447269766572735CD0
:1056E00066736C5F6932632E6300000078666572D2
:1056F000000000002DE9F05F05460E4617469A4669
:10570000B14606B104E0C8222DA133A002F0A6FEE6
:105710004FF0000832E0284600F062F8044604F03A
:10572000100018B140F62D20BDE8F09F04F04000B5
:1057300010B14FF42360F7E7C4F3420BBBF1020F43
:1057400006D0BBF1030F0CD0BBF1040F0DD109E063
:1057500019F8010BC5F828087F1E0120C5F820089C
:1057600006E000BF40F62A2802E040F6312800BFDC
:1057700000BFB8F1000F01D04046D5E7002FCAD1D5
:10578000284600F02DF8044604F0500048B90AF00D
:10579000040030B90420C5F82008284600F020F89D
:1057A000044604F0100010B140F62D20BCE704F0D0
:1057B000400010B14FF42360B6E70020B4E70000CA
:1057C0005352435C447269766572735C66736C5FB6
:1057D0006932632E630000007478427566660000CB
:1057E00070B5054600BF00BFD5F8044800BF04F0FF
:1057F00001000028F7D050212846FFF7F5FD20468C
:1058000070BD10B500EBC11444F8223010BD10B5C6
:1058100000EBC11444F8223010BD000000200EE05F
:105820009FED0D0A0D4901EB800181ED000A9FED0E
:105830000A0A0B4901EB800181ED000A401CB0F51A
:10584000806FEDDB05480749086005480649086098
:10585000002006490860704700000000780600201C
:105860007816002070000020740000207C000020CA
:1058700010B500201F49086002204107C1F8A803A5
:1058800081041C48C83801601B4801601A48203058
:10589000016040F2053119480160001D01600220DD
:1058A00017490860002016490C310860012115488D
:1058B000016040F22311001D016000211148803871
:1058C0000160001D016001200D49103108607D203C
:1058D0000C498C39086000210B48C0F804110B49B1
:1058E000C0F88011192000F0F1FB0021192000F010
:1058F000F9FB10BDEC02004024010040881000407C
:10590000000F09408C010940000009400700020017
:10591000024601F0010008B1C2F8240C01F01E009B
:1059200000B1906270470A4602F0010121B1D0F83F
:10593000203C0B43C0F8203C02F01E0111B1C369AA
:105940000B43C36170470000F0B503460D460020CD
:105950001060186805EB50001E68B0FBF6F10129D5
:1059600009D893F82100202803D1002140051060B8
:105970002AE00020F0BD891E1F2901D90020F9E787
:1059800093F8210000B9E9B193F82100802801D1F2
:10599000042917D393F82100102801D1022911D32B
:1059A00093F82100502801D108290BD393F8210046
:1059B000902801D1082905D393F82100D02803D1DC
:1059C0000E2901D20020D5E793F8210000F0200035
:1059D00018B19888401E84B21CE093F8210000F0B2
:1059E000100080B193F8210000F0400028B19888A1
:1059F0000126C6EBD00084B20CE098880126C6EBE5
:105A0000900084B206E0988800EB40000126C6EBC7
:105A1000D00084B201F01F004E094FF0784707EA2A
:105A2000C6663043044E06EA0446304316683043E7
:105A3000106001209EE700000000FF0300210160CC
:105A400081808171C17101724181017341738173E0
:105A50000121C173002101828174C174416181619E
:105A60000177C18380F82010202180F82110704731
:105A70000146D1F82C0C4A6A1043704770B50546B0
:105A8000002406E0094850F82400A84200D102E0B2
:105A9000641C002CF6D000BF04B904E0702204A1FD
:105AA00009A002F0DBFC204670BD0000E8AC00005D
:105AB0005352435C447269766572735C66736C5FC3
:105AC0006C6364632E630000696E7374616E63655A
:105AD000203C2041525241595F53495A4528735F37
:105AE0006C63644261736573290000002DE9F8431B
:105AF00005460C46164604B104E0C22256A15CA03D
:105B000002F0ACFC06B104E0C32253A15AA002F09B
:105B1000A5FC207900F00F0000B904E0C4224EA1DA
:105B200058A002F09BFC207D00F0070000B904E0C3
:105B3000C52249A15AA002F091FC207E00F0070086
:105B400000B904E0C62244A15FA002F087FC6A46C7
:105B500031462046FFF7F8FE10B90420BDE8F8836F
:105B60002846FFF78BFF8046614931F81800FBF7A4
:105B700091FE604951F8280000F038FCA86900F453
:105B80009837E08B94F821100843217F0E2202EA17
:105B900041010843074394F8200008B147F4807797
:105BA000AF611E20A8620120C5F8240C0020E86126
:105BB000C5F8200CA0880121C1EB1010FC2101EADE
:105BC0008000A179491E4FF47F4202EA0121084377
:105BD000E179491E120202EA01410843217A491E75
:105BE000120202EA0161084328606089401EC0F386
:105BF0000900217B491E4FF47C4202EA81210843BF
:105C0000617B491E4FF47F0202EA01410843A17BF8
:105C1000491E120202EA016108436860208AE17BA2
:105C2000491E4FF4F86202EA8111084300990843C3
:105C3000A860A07C38B1E07C401E00F07F0040F4FA
:105C40008030E86001E00020E86060692861A069B8
:105C50006861002082E700005352435C4472697619
:105C60006572735C66736C5F6C6364632E630000C3
:105C7000636F6E6669670000737263436C6F636B7A
:105C80005F487A0028636F6E6669672D3E70706C9E
:105C90002026203078465529203D3D2030550000F3
:105CA00028636F6E6669672D3E757070657250610E
:105CB0006E656C4164647220262030783037552937
:105CC000203D3D203055000028636F6E6669672DCA
:105CD0003E6C6F77657250616E656C4164647220D2
:105CE0002620307830375529203D3D2030550000A2
:105CF000ECAC0000F0AC000010B50B48FFF7B8FEAC
:105D0000044621460848FFF703FE04F0040010B1E2
:105D100001200649087000BF00BF00BFBFF34F8FCE
:105D200000BF00BF00BF10BD00300840F8000020D9
:105D300010B52DED0A8B82B0CF48006801287CD1C8
:105D40004105CE48C1600023CD4ACE480168CE4807
:105D500003F006FE4FF40011C8488030C1604215C0
:105D6000CA49C74803F050FBC94804F066FAC94B5A
